:020000040800F2
:100000000000022045290008A5280008A7280008AC
:10001000A9280008AB280008AD280008000000004F
:10002000000000000000000000000000AF280008F1
:10003000B128000800000000B3280008B528000817
:100040009529000895290008952900089529000898
:100050009529000895290008952900089529000888
:100060009529000895290008952900089529000878
:100070009529000895290008952900089529000868
:100080009529000895290008952900089529000858
:100090009529000895290008952900089529000848
:1000A0009529000895290008952900089529000838
:1000B0009529000895290008952900089529000828
:1000C0009529000895290008952900089529000818
:1000D0009529000895290008952900089529000808
:1000E00095290008952900089529000895290008F8
:1000F00095290008952900089529000895290008E8
:1001000095290008952900089529000895290008D7
:1001100095290008952900089529000895290008C7
:1001200095290008952900089529000895290008B7
:100130009529000800000000000000009529000833
:100140009529000895290008952900089529000897
:100150009529000895290008952900089529000887
:100160009529000895290008952900089529000877
:10017000952900089529000895290008000000002D
:1001800000000000952900080000000000000000A9
:1001900095290008000000000000000095290008D3
:1001A0000000000000000000000000009529000889
:1001B0009529000895290008952900089529000827
:0401C0009529000875
:1001D00010B5054C237833B9044B13B10448AFF381
:1001E00000800123237010BD70000020000000007B
:1001F0000C32000808B5034B1BB103490348AFF3A9
:10020000008008BD00000000740000200C320008CF
:1002100053B94AB9002908BF00281CBF4FF0FF316D
:100220004FF0FF3000F072B9ADF1080C6DE904CE6B
:1002300000F006F8DDF804E0DDE9022304B07047C1
:100240002DE9F047089E04468846002B4BD18A4290
:10025000154667D9B2FA82F24AB1C2F1200701FA13
:1002600002F320FA07F7954047EA030894404FEA63
:10027000154E230CB8FBFEF71FFA85FC0EFB178802
:1002800043EA084307FB0CF1994209D9EB1807F13F
:10029000FF3080F01B81994240F21881023F2B44CD
:1002A0005B1AA4B2B3FBFEF00EFB103344EA034426
:1002B00000FB0CFCA44509D92C1900F1FF3380F098
:1002C0000781A44540F2048102382C4440EA0740EB
:1002D000A4EB0C0400271EB1D4400023C6E9004360
:1002E0003946BDE8F0878B4209D9002E00F0EB803B
:1002F0000027C6E9000138463946BDE8F087B3FA61
:1003000083F7002F47D18B4202D3824200F2FA805A
:10031000841A61EB030301209846002EE0D0C6E961
:100320000048DDE702B9FFDEB2FA82F2002A40F0AF
:100330008F80491B4FEA154E1FFA85F80127B1FB44
:10034000FEFC230C0EFB1C1143EA014308FB0CF1DD
:10035000994207D9EB180CF1FF3002D2994200F212
:10036000CD808446591AA3B2B1FBFEF00EFB1014E7
:1003700043EA044408FB00F8A04507D92C1900F112
:10038000FF3302D2A04500F2B6801846A4EB080461
:1003900040EA0C409FE7C7F1200CBB4022FA0CFE5C
:1003A0004EEA030E01FA07F420FA0CF521FA0CF3D9
:1003B0004FEA1E482543B3FBF8F92C0C08FB193310
:1003C0001FFA8EFA44EA034309FB0AF49C4202FA3C
:1003D00007F200FA07F10BD91EEB030309F1FF3016
:1003E00080F087809C4240F28480A9F10209734426
:1003F0001B1BADB2B3FBF8F008FB103345EA034416
:1004000000FB0AFAA24508D91EEB040400F1FF33F1
:100410006BD2A24569D90238744440EA0940A0FB76
:100420000289A4EB0A044C45C2464B4654D351D032
:10043000002E69D0B1EB0A0564EB030404FA0CFC4E
:10044000FD40FC404CEA0505C6E90054002747E79B
:10045000C2F1200320FA03F7954001FA02F021FAD5
:1004600003F34FEA154E3843010CB3FBFEF71FFAB6
:1004700085F80EFB173341EA034107FB08F38B4273
:1004800004FA02F407D9691807F1FF3C2FD28B4216
:100490002DD9023F2944CB1A81B2B3FBFEF00EFBEB
:1004A000103341EA034100FB08F38B4207D9691876
:1004B00000F1FF3C17D28B4215D902382944C91AE2
:1004C00040EA07473BE73746304609E70746E7E695
:1004D0001846FBE64145ABD2B8EB020A69EB0E02C7
:1004E00001381346A4E76046E9E7184695E76746F2
:1004F000D1E781467CE702382C4447E7ACF1020C97
:100500002B442FE7384608E73746E9E6704700BF37
:10051000034613F8012B002AFBD1181A0138704743
:1005200001F0FF01102A2BDB10F0070F08D010F8A4
:10053000013B013A8B422DD010F0070F42B3F6D1A8
:10054000F0B441EA012141EA014122F007047FF0C1
:1005500000070023F0E80256083C85EA010586EA18
:10056000010685FA47F5A3FA87F586FA47F6A5FA54
:1005700087F68EB9EED1F0BC01F0FF0102F0070260
:1005800032B110F8013B013A83EA010313B1F8D10B
:100590000020704701387047002D06BF35460338EC
:1005A000073815F0010F07D1013015F4807F02BF25
:1005B000013015F4C03F0130F0BC0138704700BF76
:1005C00010B504460E4B18784FF47A73B3FBF0F372
:1005D0000C4A1068B0FBF3F000F09CF868B90F2CDF
:1005E00001D901200AE0002221464FF0FF3000F03F
:1005F0005DF8034B5C60002000E0012010BD00BFEF
:10060000000000200800002008B50B4B1A6842F4D7
:1006100000721A601A6842F480621A601A6842F422
:1006200080721A60032000F02FF80020FFF7C8FF47
:1006300002F0AAF8002008BD003C0240034A1168FD
:10064000034B1B780B441360704700BF540100201C
:1006500000000020014B1868704700BF54010020C3
:1006600038B50446FFF7F6FF0546B4F1FF3F02D068
:10067000044B1B781C44FFF7EDFF401BA042FAD34C
:1006800038BD00BF00000020074AD36823F4E063B0
:100690001B041B0C000200F4E060184340F0BF6034
:1006A00040F40030D060704700ED00E030B4174BEC
:1006B000DB68C3F30223C3F10704042C28BF04241E
:1006C0001D1D062D18D9033B4FF0FF3505FA04F424
:1006D00021EA0401994005FA03F322EA03031943CE
:1006E00000280BDB0901C9B200F1604000F5614050
:1006F00080F8001330BC70470023E5E700F00F00DE
:100700000901C9B2024B1954F4E700BF00ED00E043
:1007100014ED00E00138B0F1807F0AD2064B58603A
:10072000064AF02182F823100020986007221A6000
:1007300070470120704700BF10E000E000ED00E0CE
:1007400000230F2B00F2D180F0B482B039E00622F2
:1007500000E00022B2403A430234644E46F82420BE
:10076000634A1468EA4302EA04064F6817F4803FBC
:1007700001D045EA04065E4C2660646802EA04067D
:100780004F6817F4003F01D045EA0406584C6660F4
:10079000A46802EA04064F6817F4801F01D045EAF6
:1007A0000406534CA660E46822404E6816F4001F0D
:1007B00001D045EA04024E4CE26001330F2B00F2F7
:1007C000918001229A400C6804EA0205AA42F4D101
:1007D0004C68022C01D0122C10D1DE08083650F8DB
:1007E00026C003F00704A7000F24BC402CEA040C29
:1007F0000C69BC4044EA0C0440F8264004685F00E1
:100800000326BE40F64306EA040C4C6804F00304D9
:10081000BC4044EA0C0404604C6804F1FF3CBCF1A9
:10082000010F03D9112C01D0122C10D1846806EAD3
:10083000040CCC68BC4044EA0C048460446824EA9C
:1008400002024C68C4F300149C4014434460C26824
:1008500016408A68BA403243C2604A6812F0805F2C
:10086000ABD000220192234A546C44F48044546477
:10087000526C02F480420192019A9C08A61C1B4A09
:1008800052F8267003F0030296000F22B24027EAC6
:100890000207194A90423FF45CAF02F58062904231
:1008A00016D002F58062904214D002F58062904228
:1008B00012D002F58062904210D002F58062904220
:1008C0000ED002F5806290423FF441AF072241E72B
:1008D00001223FE702223DE703223BE7042239E7FA
:1008E000052237E702B0F0BC70477047003801407E
:1008F000003C0140003802400000024012B90904E7
:100900008161704781617047002800F09D8070B55B
:1009100004464F4B1B6803F00F038B4209D2CBB246
:100920004B4A1370136803F00F038B4201D0012070
:1009300070BD236813F0020F17D013F0040F04D01A
:10094000444A936843F4E0539360236813F0080F1C
:1009500004D0404A936843F4604393603D4A9368EF
:1009600023F0F003A068034393600D46236813F05F
:10097000010F32D06368012B21D09A1E012A25D99C
:10098000344A126812F0020F60D032498A6822F0AD
:10099000030213438B60FFF75DFE06462D4B9B68F9
:1009A00003F00C036268B3EB820F16D0FFF752FE20
:1009B000801B41F288339842F0D90320B8E7254ADA
:1009C000126812F4003FE0D10120B1E7214A126819
:1009D00012F0007FD9D10120AAE71D4B1B6803F05C
:1009E0000F03AB4209D9EAB2194B1A701B6803F026
:1009F0000F03AB4201D001209AE7236813F0040FE4
:100A000006D0144A936823F4E053E1680B439360E3
:100A1000236813F0080F07D00E4A936823F460434D
:100A2000216943EAC103936000F040F8094B9B68D9
:100A3000C3F30313084AD35CD840084B1860002066
:100A4000FFF7BEFD002073E70120704701206FE72C
:100A5000003C024000380240243200080800002018
:100A6000014B1868704700BF0800002008B5FFF769
:100A7000F7FF044B9B68C3F38223034AD35CD8403F
:100A800008BD00BF003802403432000808B5FFF747
:100A9000E7FF044B9B68C3F34233034AD35CD8405F
:100AA00008BD00BF00380240343200082DE9F04B89
:100AB000444B9B6803F00C03082B06D00C2B42D050
:100AC000042B7CD04048BDE8F08B3E4B5A6802F0C6
:100AD0003F025B6813F4800F12D03A4B5968C1F3A0
:100AE000881100233948A1FB0001FFF791FB354B2A
:100AF0005B68C3F3014301335B00B0FBF3F0E2E753
:100B0000304B5B68C3F388131E4600275C01002549
:100B1000E41A65EB0705A90141EA9461A001001BF5
:100B200061EB0501CB0043EA5073C400A01943EB0D
:100B300007018B0243EA90538402204619460023A2
:100B4000FFF766FBD3E71F4B5A6802F03F025B6872
:100B500013F4800F10D01B4B5968C1F38811002388
:100B60001A48A1FB0001FFF753FB164B5B68C3F368
:100B70000273B0FBF3F0A6E7124B5B68C3F3881374
:100B80001E4600275C010025E41A65EB0705A90154
:100B900041EA9461A001001B61EB0501CB0043EA2F
:100BA0005073C400A01943EB07018B0243EA905332
:100BB0008402204619460023FFF72AFBD5E70348A5
:100BC00081E700BF003802400024F40040787D0136
:100BD00070B582B00446036813F0010F41D0A64BF4
:100BE0009B6803F00C03042B32D0A34B9B6803F0EB
:100BF0000C03082B27D0A04B9B6803F00C030C2B95
:100C000059D06368B3F5803F5BD0B3F5A02F5ED0B9
:100C1000994B1A6822F480321A601A6822F48022F2
:100C20001A606368002B5CD0FFF714FD0546924BF9
:100C30001B6813F4003F14D1FFF70CFD401B642820
:100C4000F5D903209DE18C4B5B6813F4800FD2D063
:100C5000894B1B6813F4003F03D06368002B00F03E
:100C60008D81236813F0020F67D0834B9B6813F0CC
:100C70000C0F4AD0804B9B6803F00C03082B3FD02D
:100C80007D4B9B6803F00C030C2B48D0E368002BD2
:100C900074D07A4B01221A60FFF7DCFC0546764BD4
:100CA0001B6813F0020F60D1FFF7D4FC401B022831
:100CB000F5D9032065E1704B5B6813F4800FA0D079
:100CC000C6E76D4A136843F480331360A9E76A4BA3
:100CD0001A6842F480221A601A6842F480321A605C
:100CE0009FE7FFF7B7FC0546634B1B6813F4003F13
:100CF000B7D0FFF7AFFC401B6428F5D9032040E1D3
:100D00005D4B5B6813F4800FBAD15B4B1B6813F02B
:100D1000020F0AD0E368012B07D0012031E1564BC6
:100D20005B6813F4800FB1D1EFE7534A136823F0E7
:100D3000F803216943EAC1031360236813F0080F25
:100D400040D0636963B34E4B01221A60FFF782FC07
:100D50000546494B5B6F13F0020F33D1FFF77AFC66
:100D6000401B0228F5D903200BE1434A136823F006
:100D7000F803216943EAC1031360DEE73F4B002219
:100D80001A60FFF767FC05463B4B1B6813F0020F28
:100D9000D3D0FFF75FFC401B0228F5D90320F0E019
:100DA000374B00221A60FFF755FC0546324B5B6F4C
:100DB00013F0020F06D0FFF74DFC401B0228F5D9B7
:100DC0000320DEE0236813F0040F79D02A4B1B6C5C
:100DD00013F0805F33D100230193274B1A6C42F04C
:100DE00080521A641B6C03F080530193019B012510
:100DF000244B1B6813F4807F23D0A368012B34D0CD
:100E0000052B41D01C4B1A6F22F001021A671A6F92
:100E100022F004021A67A368002B3FD0FFF71AFCE8
:100E20000646154B1B6F13F0020F48D1FFF712FC5B
:100E3000801B41F288339842F3D90320A1E00025BA
:100E4000D6E7104A136843F480731360FFF702FC7F
:100E500006460C4B1B6813F4807FCED1FFF7FAFBDC
:100E6000801B0228F5D903208BE0034A136F43F05F
:100E700001031367CFE700BF00380240000047427C
:100E8000800E474200700040404B1A6F42F004024F
:100E90001A671A6F42F001021A67BCE7FFF7DAFB24
:100EA00006463A4B1B6F13F0020F08D0FFF7D2FB38
:100EB000801B41F288339842F3D9032061E0E5B901
:100EC000A369002B5CD0314A926802F00C02082A18
:100ED00059D0022B17D02E4B00221A60FFF7BAFB15
:100EE00004462A4B1B6813F0007F45D0FFF7B2FB86
:100EF000001B0228F5D9032043E0244A136C23F099
:100F000080531364DCE7224B00221A60FFF7A2FB38
:100F100005461E4B1B6813F0007F06D0FFF79AFBB7
:100F2000401B0228F5D903202BE0E369226A134312
:100F3000626A43EA8213A26A5208013A43EA024310
:100F4000E26A43EA0263226B43EA02730F4A536088
:100F50000F4B01221A60FFF77DFB04460B4B1B6809
:100F600013F0007F06D1FFF775FB001B0228F5D9AF
:100F7000032006E0002004E0002002E0012000E061
:100F8000002002B070BD0120FBE700BF0038024026
:100F900060004742F8B505460F4616461C462B68CA
:100FA0009B6837EA03030CBF01230023B34237D009
:100FB000B4F1FF3FF3D0FFF74DFB069BC01AA042F0
:100FC00001D2002CEBD12A68536823F0E003536070
:100FD0006B68B3F5827F0BD0AB6AB3F5005F14D0BA
:100FE000012385F85130002385F85030032018E0A4
:100FF000AB68B3F5004F02D0B3F5806FECD12A682F
:10100000136823F040031360E6E72A68136823F4AB
:10101000005313602A68136843F400531360DFE73A
:101020000020F8BD30B585B0164C2468164DA5FBE0
:101030000434640D4FF47A7505FB04F4039444689A
:10104000B4F5827F0BD0039BC3B1039B013B039399
:1010500003689B6813F0800FF5D100230FE00B4667
:101060000446009200228021FFF794FF034630B12E
:10107000636D43F020036365032300E000231846FB
:1010800005B030BD08000020819F5E1610B582B00B
:1010900004464068B0F5827F16D06068B0F5827F64
:1010A0002ED1A368B3F5806F1BD000920B460022AF
:1010B00080212046FFF76EFF034650B3636D43F077
:1010C00020036365032324E0A368B3F5004F02D037
:1010D000B3F5806FE1D12068036823F0400303601B
:1010E000DBE700920B46002201212046FFF752FF6A
:1010F000034670B1636D43F020036365032308E08A
:1011000000920B46002201212046FFF743FF0346D1
:1011100010B9184602B010BD636D43F0200363653B
:101120000323F6E700283BD010B504460023836272
:1011300090F85130002B2ED0022384F851302268D1
:10114000136823F0400313606368A2681343E268E6
:1011500013432269134362691343A26902F40072C4
:101160001343E2691343226A1343A16A22680B43C3
:101170001360638B03F00403616A22680B435360BE
:101180002268D36923F40063D361002060650123E2
:1011900084F8513010BD80F8503001F011FBCBE7DE
:1011A000012070472DE9F04182B090F85040012CA9
:1011B00000F0C3801D46174688460446012380F888
:1011C0005030FFF747FA064694F85130DBB2012B56
:1011D00009D00220012384F85130002384F85030D4
:1011E00002B0BDE8F081B8F1000F00F09880002F48
:1011F00000F09780032384F8513000236365C4F81E
:101200003080A786E786A363A387E38763642364AC
:10121000A368B3F5004F1CD023681A6812F0400F82
:1012200003D11A6842F040021A60E368B3F5006F18
:1012300015D063680BB1012F49D1226B2368127856
:101240001A73236B01332363E38E013B9BB2E38666
:101250003DE02268136843F480431360DCE7636871
:101260000BB1012F15D1226B23681288DA60236B32
:1012700002332363E38E013B9BB2E38609E0FFF771
:10128000E9F9801BA84202D3B5F1FF3F4BD1002DF5
:101290004BD0E38E9BB2002B2CD023689A6812F0BF
:1012A000020FECD0226B1288DA60236B02332363C7
:1012B000E38E013B9BB2E386EBE7FFF7CBF9801BA4
:1012C000A84202D3B5F1FF3F31D1002D31D0E38EDA
:1012D0009BB27BB123689A6812F0020FEDD0226BAB
:1012E00012781A73236B01332363E38E013B9BB2A5
:1012F000E386ECE7324629462046FFF793FE08B125
:1013000020236365A36833B901932368DA680192E7
:101310009B680193019B636D6BB900205AE7012024
:1013200058E7012056E7032054E7032052E7032043
:1013300050E703204EE701204CE7022050E72DE95B
:10134000F04383B0DDF8288090F85040012C00F085
:101350000B811D4617460E460446012380F8503087
:10136000FFF778F9814694F85100C0B2636801280C
:1013700015D0B3F5827F0AD00223012284F85120D0
:10138000002284F85020184603B0BDE8F083A3681B
:10139000002B40F0DB80042801D00223EDE7002E73
:1013A00000F0D680002F00F0D580002D00F0D48012
:1013B00094F85130DBB2042B02D0052384F851306D
:1013C00000236365A763E587A5872663E586A58671
:1013D0002364636423681A6812F0400F03D11A680B
:1013E00042F040021A60E368B3F5006F10D0636802
:1013F0000BB1012D0AD1226B236812781A73236B6B
:1014000001332363E38E013B9BB2E386012569E050
:1014100063680BB1012D0AD1226B23681288DA6050
:10142000236B02332363E38E013B9BB2E3860125EA
:101430001BE023689A6812F0010F0DD0E28F92B280
:1014400052B1DA68A36B1A80A36B0233A363E38FF4
:10145000013B9BB2E3870125FFF7FCF8A0EB0900F5
:10146000404502D3B8F1FF3F78D1E38E9BB21BB960
:10147000E38F9BB2002B52D023689A6812F0020FC0
:10148000D7D0E28E92B2002AD3D0002DD1D0226BD9
:101490001288DA60236B02332363E38E013B9BB235
:1014A000E3860025C5E723689A6812F0010F0DD086
:1014B000E28F92B252B1DA68A36B1A70A36B013358
:1014C000A363E38F013B9BB2E3870125FFF7C2F8DB
:1014D000A0EB0900404502D3B8F1FF3F40D1B8F17D
:1014E000000F3FD0E38E9BB213B9E38F9BB2B3B131
:1014F00023689A6812F0020FD5D0E28E92B2002AC9
:10150000D1D0002DCFD0226B12781A73236B013308
:101510002363E38E013B9BB2E3860025C3E74A4683
:1015200041462046FFF77EFD034618B12023636540
:10153000012322E7A268002A7FF41FAF01922268EC
:10154000D168019192680192019A16E7022314E78B
:10155000012312E7012310E701230EE703230CE721
:1015600003230AE7032308E702230CE72DE9F041F0
:1015700082B004460F4690461D464368B3F5827F0D
:1015800019D094F85030012B00F09F80012384F88B
:101590005030FFF75FF8064694F85130DBB2012B6C
:1015A00015D00220012384F85130002384F85030F4
:1015B00002B0BDE8F0818368002BE2D1042380F8FB
:1015C0005130009513460A46FFF7B9FEF0E7002FA9
:1015D0006DD0B8F1000F6CD0042384F85130002393
:1015E0006365A763A4F83C80A4F83E802363A386C8
:1015F000E38623646364A368B3F5004F0BD02368CC
:101600001A6812F0400F03D11A6842F040021A60C3
:10161000E36883B12CE02268136823F480431360ED
:10162000EDE7FFF717F8801BA84202D3B5F1FF3FA3
:1016300041D1002D41D0E38F9BB2002B2BD02368EA
:101640009A6812F0010FECD0A26B1B7B1370A36B96
:101650000133A363E38F013B9BB2E387EBE7FEF724
:10166000F9FF801BA84202D3B5F1FF3F27D145B354
:10167000E38F9BB27BB123689A6812F0010FEED022
:10168000DA68A36B1A80A36B0233A363E38F013B79
:101690009BB2E387ECE7324629462046FFF7F6FC8B
:1016A00008B120236365636D6BB900207AE70120E0
:1016B00078E7012076E7032074E7032072E7032030
:1016C00070E703206EE701206CE7022070E700005E
:1016D0002DE9F84304460268136923F44053C168B6
:1016E0000B43136183680269134342691343C26960
:1016F0001A430168CB6823F4164323F00C03134309
:10170000CB600268536923F4407381690B435361D2
:10171000C369B3F5004F60D00368B84A934200F044
:10172000148102F58062934200F00F81FFF79EF969
:1017300000EB800000EB80006568AD00B0FBF5F5C4
:10174000AF4FA7FB05356D092E01FFF78FF900EBB1
:10175000800000EB80006568AD00B0FBF5F9FFF795
:1017600085F900EB800000EB80006568AD00B0FB00
:10177000F5F5A7FB05356D094FF0640808FB1595D5
:101780002D013235A7FB05356D0905F0F00535440F
:10179000FFF76CF900EB800000EB80006668B60094
:1017A000B0FBF6F6FFF762F900EB800000EB80007B
:1017B00063689B00B0FBF3F0A7FB0030400908FB17
:1017C00010684FEA081808F13208A7FB0837C7F37A
:1017D000431723682F449F600DE10368874A9342B3
:1017E0005BD002F58062934257D0FFF73FF900EBE0
:1017F000800000EB800065686D00B0FBF5F5804F60
:10180000A7FB05356D092E01FFF730F900EB8000CD
:1018100000EB800065686D00B0FBF5F9FFF726F975
:1018200000EB800000EB800065686D00B0FBF5F513
:10183000A7FB05356D094FF0640808FB1595ED0011
:101840003235A7FB05356D096D0005F4F875354493
:10185000FFF70CF900EB800000EB80006668760073
:10186000B0FBF6F6FFF702F900EB800000EB80001A
:1018700063685B00B0FBF3F3A7FB03235B0908FB82
:1018800013684FEAC80808F13208A7FB0837C7F306
:10189000421723682F449F60ADE0FFF7F7F800EB95
:1018A000800000EB800065686D00B0FBF5F5544FDB
:1018B000A7FB05356D092E01FFF7E8F800EB800066
:1018C00000EB800065686D00B0FBF5F9FFF7DEF80E
:1018D00000EB800000EB800065686D00B0FBF5F563
:1018E000A7FB05356D094FF0640808FB1595ED0061
:1018F0003235A7FB05356D096D0005F4F8753544E3
:10190000FFF7C4F800EB800000EB8000666876000B
:10191000B0FBF6F6FFF7BAF800EB800000EB8000B2
:1019200063685B00B0FBF3F3A7FB03235B0908FBD1
:1019300013684FEAC80808F13208A7FB0837C7F355
:10194000421723682F449F6055E0FFF79FF800EB94
:10195000800000EB80006568AD00B0FBF5F5284F16
:10196000A7FB05356D092E01FFF790F800EB80000D
:1019700000EB80006568AD00B0FBF5F9FFF786F875
:1019800000EB800000EB80006568AD00B0FBF5F572
:10199000A7FB05356D094FF0640808FB15952D016F
:1019A0003235A7FB05356D0905F0F0053544FFF725
:1019B0006DF800EB800000EB80006668B600B0FBBD
:1019C000F6F6FFF763F800EB800000EB8000636839
:1019D0009B00B0FBF3F0A7FB0030400908FB106848
:1019E0004FEA081808F13208A7FB0837C7F3431776
:1019F00023682F449F60BDE8F88300BF00100140BA
:101A00001F85EB512DE9F04105460F4616469846D5
:101A1000069C2B681B6837EA03030CBF01230023D5
:101A2000B3421DD1B4F1FF3FF3D02CB1FEF712FE4B
:101A3000A0EB0800A042ECD92A68D36823F4D07345
:101A4000D3602A68536923F001035361202385F88A
:101A5000393085F83A30002385F83830032000E02B
:101A60000020BDE8F08158B310B5044690F8393035
:101A70000BB3242384F839302268D36823F400534D
:101A8000D3602046FFF724FE2268136923F49043B5
:101A900013612268536923F02A0353612268D368D3
:101AA00043F40053D3600020E063202384F83930EE
:101AB00084F83A3010BD80F8383000F0B9FED8E72D
:101AC000012070472DE9F04182B01E4690F8393070
:101AD000DBB2202B55D104460D469046002955D047
:101AE000002A55D090F83830012B53D0012380F8CC
:101AF00038300023C363212380F83930FEF7AAFD74
:101B00000746A4F82480A4F8268010E000963B46FF
:101B1000002280212046FFF775FF00283CD12B884A
:101B20002268C3F3080353602369C3B90235E38C09
:101B30009BB2B3B1E38C013B9BB2E384A368B3F5E2
:101B4000805FE3D000963B46002280212046FFF7CD
:101B500059FF18BB2A7823685A600135E7E7013539
:101B6000E5E700963B46002240212046FFF74AFF6A
:101B70000346A8B9202284F83920002284F83820AE
:101B800000E00223184602B0BDE8F0810123F9E726
:101B90000123F7E70223F5E70323F3E70323F1E744
:101BA0000323EFE708B530B9064B002219885868BF
:101BB000FEF7A4FE08BD034B012219885868FEF702
:101BC0009DFEF7E79000002008B530B9064B0022D3
:101BD00019895868FEF792FE08BD034B0122198946
:101BE0005868FEF78BFEF7E79000002010B582B032
:101BF00004460020FFF7D6FF04F01F0402A901F8F5
:101C0000044D0A4C642301222046FFF7CBFA6423DB
:101C100001220DF105012046FFF7A8FC9DF80540C3
:101C20000120FFF7BFFF204602B010BD9C0000203E
:101C300070B582B004460D4616460020FFF7B2FF8D
:101C400004F01F0402A901F8044D084C642301228A
:101C50002046FFF7A7FA6423324629462046FFF7BD
:101C600085FC0120FFF79EFF02B070BD9C000020A4
:101C700030B583B004460D460020FFF793FF44F0D3
:101C800020048DF804408DF805506423022201A938
:101C90000348FFF787FA0120FFF784FF03B030BD48
:101CA0009C00002070B582B004460D461646002008
:101CB000FFF778FF44F0200402A901F8044D084C16
:101CC000642301222046FFF76DFA64233246294639
:101CD0002046FFF767FA0120FFF764FF02B070BDEE
:101CE0009C00002008B5FF21E120FFF7C1FF08BDDF
:101CF00008B5FF21E220FFF7BBFF08BD08B501F0E2
:101D00000F0141EA0011C9B20420FFF7B1FF08BD7D
:101D100008B501467F2828BF7F210520FFF7A8FFCF
:101D200008BD0000202828BF2020024B83F8700047
:101D3000704700BF9000002008B51D20FFF756FF38
:101D400000F0FB011D20FFF793FF00211C20FFF78F
:101D50008FFF08BD10B504460620FFF747FF00F0CF
:101D6000F901032C09D0022C0DD0012C0ED034B176
:101D7000042C04D141F0060101E041F006010620E7
:101D8000FFF776FF10BD41F00401F8E741F00201D2
:101D9000F5E738B505460620FFF728FF00F0D70421
:101DA000022D0CD0012D0DD021460620FFF760FF3B
:101DB0000620FFF71BFFA04207D0002038BD44F0EB
:101DC0002004F1E744F00804EEE70120F6E710B53F
:101DD00004460020FFF70AFF00F0F3011CB1012CBC
:101DE00005D041F00C010020FFF742FF10BD41F08B
:101DF0000801F8E708B50020FFF7F8FE00F0FD0144
:101E00000020FFF735FF08BD08B570210720FFF758
:101E10002FFF08BD00B583B00020FFF7C3FE50239D
:101E20008DF8043073238DF805306423022201A954
:101E30000448FFF7B7F90120FFF7B4FE03B05DF8DF
:101E400004FB00BF9C00002070B5A0B007ACC44DDF
:101E50000FCD0FC40FCD0FC40FCD0FC42B6824F8C6
:101E6000023B1B0C237007A8FEF752FB0A2382B229
:101E700007A9BC48FFF726FE0020FFF7B7FE10F0C9
:101E8000080F00F0618210F0040F00F0518207ACDF
:101E9000B54D0FCD0FC495E8070084E8070007A8EB
:101EA000FEF736FBAF4C0A2382B207A92046FFF7A4
:101EB00009FE0120FFF79AFEC0F340130393C0F31D
:101EC00000130293C0F3C0030193C0F38003009397
:101ED000C0F3400300F00102A44907A800F09AFDF6
:101EE00007A8FEF715FB0A2382B207A92046FFF7D1
:101EF000E9FD0220FFF77AFEC0F340130393C0F31D
:101F000000130293C0F3C0030193C0F38003009356
:101F1000C0F3400300F00102954907A800F07AFDE4
:101F200007A8FEF7F5FA0A2382B207A92046FFF7B1
:101F3000C9FD0320FFF75AFE00F0030202328D496B
:101F400007A800F067FD07A8FEF7E2FA0A2382B2AD
:101F500007A92046FFF7B6FD0520FFF747FE00F072
:101F60007F02854907A800F055FD07A8FEF7D0FAC3
:101F70000A2382B207A92046FFF7A4FD0620FFF737
:101F800035FE044610F0080F00F0E58107AD7B4EEA
:101F90000FCE0FC596E8030045F8040B25F8021B89
:101FA000090C297007A8FEF7B3FA0A2382B207A921
:101FB0006C48FFF787FDC4F34104002C00F0D88182
:101FC000012C00F0DC81022C00F0E081032C00F0F9
:101FD000E78107A8FEF79CFA624C0A2382B207A9A0
:101FE0002046FFF76FFD052205A90A20FFF720FE16
:101FF0009DF818209DF817309DF816109DF81500D3
:102000009DF814500295019000915D4907A800F0D9
:1020100001FD07A8FEF77CFA0A2382B207A9204631
:10202000FFF750FD052205A90B20FFF701FE9DF8E3
:1020300018209DF817309DF816109DF815009DF892
:1020400014500295019000914E4907A800F0E2FC5F
:1020500007A8FEF75DFA0A2382B207A92046FFF718
:1020600031FD012205A90C20FFF7E2FD9DF81420A7
:10207000454907A800F0CEFC07A8FEF749FA0A2355
:1020800082B207A92046FFF71DFD012205A90D20F8
:10209000FFF7CEFD9DF814203C4907A800F0BAFCDC
:1020A00007A8FEF735FA0A2382B207A92046FFF7F0
:1020B00009FD012205A90E20FFF7BAFD9DF81420A5
:1020C000334907A800F0A6FC07A8FEF721FA0A2367
:1020D00082B207A92046FFF7F5FC012205A90F20CF
:1020E000FFF7A6FD9DF814202A4907A800F092FCEE
:1020F00007A8FEF70DFA0A2382B207A92046FFF7C8
:10210000E1FC052205A91020FFF792FD9DF818209B
:102110009DF817309DF816109DF815009DF8145085
:102120000295019000911C4907A800F073FC07A8D4
:10213000FEF7EEF90A2382B207A92046FFF7C2FC98
:102140001120FFF753FD00F03F02144907A800F0EB
:1021500061FC07A8FEF7DCF90A2382B220E000BF89
:102160003C3200080401002070320008BC32000834
:10217000003300084C330008683300087C33000843
:10218000FC3300082C3400085C3400088434000858
:10219000AC340008D4340008FC34000828350008AA
:1021A00007A92046FFF78EFC1220FFF71FFD00F065
:1021B0003F028A4907A800F02DFC07A8FEF7A8F9FE
:1021C0000A2382B207A92046FFF77CFC1320FFF701
:1021D0000DFD00F03F02824907A800F01BFC07A894
:1021E000FEF796F90A2382B207A92046FFF76AFC98
:1021F0001420FFF7FBFC00F03F027A4907A800F02B
:1022000009FC07A8FEF784F90A2382B207A9204631
:10221000FFF758FC1520FFF7E9FC00F03F02724978
:1022200007A800F0F7FB07A8FEF772F90A2382B2AD
:1022300007A92046FFF746FC1620FFF7D7FC00F061
:102240003F026A4907A800F0E5FB07A8FEF760F91E
:102250000A2382B207A92046FFF734FC1C20FFF7AF
:10226000C5FCC0F340130393C0F300130293C0F303
:10227000C0030193C0F380030093C0F3400300F058
:1022800001025B4907A800F0C5FB07A8FEF740F96B
:102290000A2382B207A92046FFF714FC1D20FFF78E
:1022A000A5FC064610F0040F00F0818007AC514DEC
:1022B0000FCD0FC495E8030044F8040B218007A854
:1022C000FEF726F90A2382B207A94B48FFF7FAFB6B
:1022D00016F0020F78D107AC484D0FCD0FC495E82A
:1022E000070003C424F8022B120C227007A8FEF783
:1022F0000FF9414E0A2382B207A93046FFF7E2FBED
:1023000007AC3F4D0FCD0FC40FCD0FC40FCD0FC481
:102310002B6824F8023B1B0C237007A8FEF7F8F883
:102320000A2382B207A93046FFF7CCFB20B070BD6C
:1023300007AC344D0FCD0FC495E8070003C424F853
:10234000022B120C2270AAE507AC2F4D0FCD0FC443
:102350002B682360A3E507AD2C4E0FCE0FC596E882
:10236000030045F8040B25F8021B090C297019E637
:1023700007AC274D0FCD0FC42B68236029E607ACAF
:10238000244D0FCD0FC42B68236022E607AC224DED
:102390000FCD0FC42B6824F8023B1B0C237018E6EA
:1023A00007AC1E4D0FCD0FC42B68238011E607AC80
:1023B0001B4D0FCD0FC495E8030044F8040B24F81F
:1023C000021B090C21707AE707AC164D0FCD0FC424
:1023D00095E8070003C4228088E700BF4435000861
:1023E000603500087C35000898350008B4350008D1
:1023F000D03500081C3600080401002068360008AB
:102400003C3200088C320008A832000894330008DF
:10241000AC330008C0330008D4330008E8330008A8
:10242000343600084C36000882B0F0B583B0074659
:102430000E46154608A941F8043F604C582204F1A5
:102440000C0000F0D3FA6760268025810120FFF799
:10245000A9FB0020FFF7B8FB0520FEF701F90821D2
:102460000020FFF705FC3F210120FFF701FC0321BD
:102470000220FFF7FDFB03210846FFF7F9FB0321CC
:102480000420FFF7F5FB02210520FFF7F1FB0F21E8
:102490000620FFF7EDFB0E210720FFF7E9FB0021E7
:1024A0000820FFF7E5FB00210920FFF7E1FBE72407
:1024B0008DF804408DF803408DF802408DF80140FE
:1024C00002AD05F8084D052229460A20FFF7EAFB70
:1024D000C2238DF804308DF803308DF802308DF86A
:1024E00001308DF80030052229460B20FFF7DAFB7A
:1024F000C3210C20FFF7BCFBC4210D20FFF7B8FB64
:10250000C5210E20FFF7B4FBC6210F20FFF7B0FB5B
:102510008DF804408DF803408DF802408DF801409D
:102520008DF80040052229461020FFF7BBFB002153
:102530001120FFF79DFB00211220FFF799FB0021DE
:102540001320FFF795FB00211420FFF791FB0021DA
:102550001520FFF78DFB00211620FFF789FBFFF701
:1025600059FC00211C20FFF783FB00211D20FFF7F1
:102570007FFBFFF769FC0F210846FFF7BFFB032035
:10258000FFF7E8FB0120FFF704FC0220FFF71FFC28
:10259000FFF7D2FB2020FFF7C5FBFFF735FC4C20EF
:1025A000FFF7B6FBFFF79EFBFFF7A2FBFFF722FC4E
:1025B00003B0BDE8F04002B0704700BF90000020BB
:1025C00030B589B0002403940494059406940794CC
:1025D00000941D4B1A6B42F004021A631A6B02F04E
:1025E00004020092009A01941A6B42F001021A63ED
:1025F0001A6B02F001020192019A02941A6B42F0E6
:1026000002021A631B6B03F002030293029B0F4D3D
:1026100022464FF440712846FEF770F94FF40053FC
:1026200003930494059403A90948FEF789F84FF42D
:1026300040730393012304930594069403A9284649
:10264000FEF77EF809B030BD0038024000040240B9
:102650000008024008B50B480B4B03604FF482732F
:10266000436000238360C360036143614FF40072E1
:102670008261C3610362436283620A23C362FEF71D
:1026800051FD08BD580100200030014008B5084840
:10269000084B03604FF4E133436000238360C36061
:1026A00003610C2242618361C361FFF7DCF908BD5D
:1026B000B00100200044004030B595B03422002124
:1026C00007A800F09EF90024029403940494059452
:1026D000069400941B4B1A6C42F080521A641B6CD7
:1026E00003F080530093009B0194174A136823F46E
:1026F000404343F480431360136803F44043019361
:10270000019B0225079501230A9310230B930D9536
:102710000E9408230F93542310931195129513953B
:1027200007A8FEF755FA0F230293039504944FF47C
:10273000805305930694294602A8FEF7E5F815B0E4
:1027400030BD00BF003802400070004000B597B0B7
:10275000FDF75AFFFFF7B0FFFFF732FFFFF77AFFF1
:10276000FFF794FF074C5422211D684600F03EF904
:1027700023684FF400724FF480711046FFF754FE47
:10278000FEE700BF5801002082B0002100910B4BF2
:102790005A6C42F480425A645A6C02F480420092AD
:1027A000009A01911A6C42F080521A641B6C03F07B
:1027B00080530193019B02B0704700BF0038024074
:1027C00000B589B000230393049305930693079300
:1027D0000268154B9A4202D009B05DF804FB002153
:1027E000019103F584335A6C42F480525A645A6C56
:1027F00002F480520192019A02911A6B42F0010296
:102800001A631B6B03F001030293029BE023039303
:1028100002230493032306930523079303A9034884
:10282000FDF78EFFD8E700BF0030014000000240F6
:1028300000B589B00023039304930593069307938F
:102840000268164B9A4202D009B05DF804FB0021E1
:10285000019103F5FA331A6C42F400321A641A6CCF
:1028600002F400320192019A02911A6B42F00102C5
:102870001A631B6B03F001030293029B0C23039367
:10288000022304930123059303230693072307934D
:1028900003A90348FDF754FFD6E700BF00440040FA
:1028A000000002407047FEE7FEE7FEE7FEE77047E4
:1028B0007047704708B5FDF7C1FE08BD08B503466F
:1028C0000B4A126842B10A4A106803446A469342AE
:1028D00006D8074A136008BD054A06491160F2E7A9
:1028E00000F05AF80C2303604FF0FF30F3E700BF0D
:1028F00044010020F80100200F49D1F8883043F44A
:102900007003C1F888300D4B1A6842F001021A605A
:10291000002098601A6822F0847222F480321A60D3
:10292000074A5A601A6822F480221A60D8604FF071
:1029300000638B60704700BF00ED00E0003802408C
:1029400010300024DFF834D0002103E00C4B5B583A
:10295000435004310B480C4B42189A42F6D30B4AB1
:1029600002E0002342F8043B094B9A42F9D3FFF7F7
:10297000C3FF00F017F8FFF7E9FE704700000220E0
:10298000C437000800000020700000207000002004
:10299000F4010020FEE70000014B1868704700BFFB
:1029A0000C00002070B50D4E0D4CA41BA41000258A
:1029B000A54209D10B4E0C4C00F028FCA41BA4101E
:1029C0000025A54205D170BD56F825309847013540
:1029D000EEE756F8253098470135F2E7BC37000896
:1029E000BC370008BC370008C037000810B5431ECC
:1029F0000A44914200D110BD11F8014B03F8014F78
:102A0000F7E702440346934200D1704703F8011BE5
:102A1000F9E700000EB400B59CB01DAB0290069023
:102A20006FF00041094807910491094953F8042BBC
:102A300005910068019302A900F066F8029B00224C
:102A40001A701CB05DF804EB03B070470C00002056
:102A50000802FFFF2DE9F0478E689E4282460C4631
:102A60009046994637D88A8912F4906F31D02568FC
:102A700009696F1A6569022305EB450595FBF3F5B6
:102A800009F101033B449D4238BF1D46530530D533
:102A9000294600F021FB064650B90C23CAF8003045
:102AA000A38943F04003A3814FF0FF30BDE8F087D6
:102AB0003A462169FFF79AFFA38923F4906343F014
:102AC0008003A381266165613E44ED1B2660A560FD
:102AD0004E464E4500D94E4632464146206800F0EB
:102AE00093FAA3689B1BA36023681E442660002002
:102AF000DCE72A4600F04AFB06460028E2D12169BD
:102B0000504600F09BFAC8E72DE9F04F1D468B892F
:102B10001F069DB080460C4616460FD50B696BB953
:102B2000402100F0D9FA2060206128B90C23C8F8B0
:102B300000304FF0FF30C8E0402363610023099369
:102B400020238DF8293030238DF82A3003954FF05B
:102B5000010B37463D4615F8013B0BB1252B3ED105
:102B6000B7EB060A0BD05346324621464046FFF7E4
:102B700071FF013000F0A480099B534409933B7816
:102B8000002B00F09D8000234FF0FF32CDE905239C
:102B9000049307938DF853301A932F46052217F8A4
:102BA000011B5048FDF7BCFC049BD0B9D90644BFBB
:102BB00020228DF853201A0744BF2B228DF8532072
:102BC0002A782A2A15D0079A2F4600200A25394646
:102BD00011F8013B303B092B4DD9B8B10FE02F461E
:102BE000B8E7404A801A0BFA00F0184304903D46BB
:102BF000D3E7039A111D12680391002A01DB0792A3
:102C000004E0524243F00203079204933B782E2BD8
:102C10000CD17B782A2B33D1039B1A1D1B6803929E
:102C2000002BB8BF4FF0FF33023705932E4D397894
:102C300003222846FDF774FC38B14023401B03FAF9
:102C400000F0049B034301370493397827488DF83B
:102C5000281006227E1CFDF763FC002838D0244B88
:102C600013BB039B073323F0070308330393099B2C
:102C70004B4409936DE705FB023201200F46A6E79E
:102C800000230137059319460A25384610F8012B11
:102C9000303A092A03D9002BC8D00591C6E705FBB5
:102CA000012101230746F0E703AB00932246114BB5
:102CB00004A94046AFF30080B0F1FF3F8146D6D172
:102CC000A3895B063FF535AF09981DB0BDE8F08FCD
:102CD00003AB00932246074B04A9404600F082F85C
:102CE000EAE700BF80370008863700088A37000807
:102CF00000000000552A00082DE9F04791461F46C4
:102D00008A680B69DDF820809342B8BF1346C9F882
:102D1000003091F8432006460C4612B10133C9F841
:102D200000302368990642BFD9F800300233C9F851
:102D30000030256815F0060507D104F1190AE3688B
:102D4000D9F800209B1AAB4228DC94F84330226863
:102D5000003318BF012392062DD404F143023946F3
:102D60003046C047013020D02368E568D9F80020FC
:102D700003F00603042B08BFAD1AA36822690CBF39
:102D800025EAE57500259342C4BF9B1AED184FF064
:102D900000091A344D451AD1002008E0012352469B
:102DA00039463046C047013003D14FF0FF30BDE80F
:102DB000F0870135C3E7E1185A1C302081F8430041
:102DC000224494F8451082F843100233C5E70123EA
:102DD000224639463046C0470130E6D009F10109A4
:102DE000D8E700002DE9F04301F1430C0C46097EC1
:102DF00085B06E291746064698460C9A00F0B380B7
:102E000022D8632936D00AD8002900F0B980582981
:102E100000F0838004F1420584F8421032E0642916
:102E200001D06929F6D120681368050603F1040171
:102E30002AD51B681160002B03DA2D225B4284F82F
:102E400043206F480A2239E0732900F09D8008D89A
:102E50006F2920D07029DDD1236843F0200323603F
:102E600003E0752917D07829D4D1782384F8453028
:102E7000644855E01368191D1B68116004F1420590
:102E800084F8423001238CE01B68116010F0400F81
:102E900018BF1BB2CFE713682568181D10602806FD
:102EA00001D51B6802E06806FBD51B8854486F29D2
:102EB00014BF0A220822002184F843106568A56027
:102EC000002DC0F29580216821F004012160002BC3
:102ED0003DD1002D40F08E806546082A0BD1236835
:102EE000DB0708D5236962689A42DEBF302305F804
:102EF000013C05F1FF35ACEB05032361CDF8008003
:102F00003B4603AA21463046FFF7F6FE01304DD17D
:102F10004FF0FF3005B0BDE8F083394884F8451024
:102F2000136821681D1D1B6815600A060BD5CA07AA
:102F300044BF41F0200121601BB9226822F0200229
:102F400022601022B7E74D0648BF9BB2EFE7654607
:102F5000B3FBF2F102FB1133C35C05F8013D0B46F4
:102F60000029F5D1B9E7136825686169181D10605B
:102F700028061B6801D5196002E06A06FBD5198096
:102F8000002323616546B9E71368191D11601D68A8
:102F9000626800212846FDF7C3FA08B1401B606053
:102FA00063682361002384F84330A7E723692A4636
:102FB00039463046C0470130AAD023689B0713D456
:102FC000E068039B9842B8BF1846A3E701234A462E
:102FD00039463046C04701309AD00135E368039A3C
:102FE0009B1AAB42F2DCEBE7002504F11909F5E787
:102FF000002BACD1037884F8423004F142056CE731
:1030000091370008A2370008884210B501EB02038F
:1030100007D8421E99420AD011F8014B02F8014F1D
:10302000F8E78342F5D98118D21AD34200D110BDF6
:1030300013F8014D01F8014DF7E7000038B50546DA
:10304000002945D051F8043C0C1F002BB8BFE418F0
:1030500000F0D2F81F4A1368104633B96360146059
:103060002846BDE8384000F0C8B8A3420CD9216812
:103070006218934204BF1A685B68636004BF521809
:1030800022600460ECE713465A680AB1A242FAD9FA
:1030900019685818A0420BD1206801445818824280
:1030A0001960DDD1106852685A6001441960D7E791
:1030B00002D90C232B60D3E7206821188A4204BF71
:1030C00011685268626004BF091821605C60C7E73C
:1030D00038BD00BF4C01002070B5CD1C25F00305A4
:1030E00008350C2D38BF0C25002D064601DBA94202
:1030F00003D90C233360002070BD00F07DF8214A15
:103100001468214691B9204C23681BB9304600F061
:1031100063F820602946304600F05EF8431C24D155
:103120000C233360304600F068F8E4E70B685B1B63
:1031300018D40B2B0FD90B60CD50CC18304600F0B3
:103140005CF804F10B00231D20F00700C31AD3D054
:103150005A42E250D0E78C424B6816BF636013605E
:103160000C46EBE70C464968CCE7C41C24F003048A
:10317000A04205D0211A304600F02EF80130CFD001
:103180002560DBE74C01002050010020F8B5074620
:1031900014460E4621B91146BDE8F840FFF79CBF22
:1031A00022B9FFF74BFF25462846F8BD00F026F868
:1031B000A0420FD221463846FFF78EFF0546002871
:1031C000F2D031462246FFF711FC31463846FFF770
:1031D00035FFE9E73546E7E738B5064C00230546F5
:1031E00008462360FFF76AFB431C02D1236803B142
:1031F0002B6038BDF00100207047704751F8043C47
:10320000181F002BBCBF0B58C0187047F8B500BF83
:10321000F8BC08BC9E467047F8B500BFF8BC08BCB7
:043220009E4670470F
:103224000000000000000000010203040607080972
:1032340000000000010203040D0A2A2A2A2A2A2A6D
:103244002A2A2A2A2A2A2A2A2A2A2A2A2A2A2A2ADA
:103254002A2A2A2A2A2A2A2A2A2A2A2A2A2A2A2ACA
:103264002A2A2A2A2A2A2A2A0D0A00004352433AE1
:103274000D0A0909456E61626C65642C2032204296
:1032840079746573200D0A004352433A0D0A090903
:10329400456E61626C65642C20312042797465202E
:1032A4000D0A00004352433A0D0A09094469736147
:1032B400626C6564200D0A00454E41413A0D0A09CD
:1032C4000950303A0925640D0A090950313A092593
:1032D400640D0A090950323A0925640D0A09095096
:1032E400333A0925640D0A090950343A0925640D55
:1032F4000A090950353A0925640D0A00454E5F5202
:1033040058414444523A0D0A090950303A09256497
:103314000D0A090950313A0925640D0A0909503288
:103324003A0925640D0A090950333A0925640D0A3E
:10333400090950343A0925640D0A090950353A0936
:1033440025640D0A0000000053455455505F415751
:103354003A0D0A09092564206279746573200D0AFF
:103364000000000052465F43483A0D0A09092564EB
:10337400204348200D0A00004461746120526174A6
:10338400653A0D0A0909324D627073200D0A000076
:103394004461746120526174653A0D0A0909314D22
:1033A400627073200D0A000052465F5057523A0D66
:1033B4000A09092D31386442200D0A0052465F5033
:1033C40057523A0D0A09092D31326442200D0A0080
:1033D40052465F5057523A0D0A09092D366442206D
:1033E4000D0A000052465F5057523A0D0A0909303F
:1033F4006442200D0A00000052585F506970653025
:103404002041646472733A0D0A0909253032582C3C
:10341400253032582C253032582C253032582C2562
:1034240030325820200D0A0052585F5069706531BF
:103434002041646472733A0D0A0909253032582C0C
:10344400253032582C253032582C253032582C2532
:1034540030325820200D0A0052585F50697065328E
:103464002041646472733A0D0A090978782C7878DB
:103474002C78782C78782C2530325820200D0A00AE
:1034840052585F50697065332041646472733A0D19
:103494000A090978782C78782C78782C78782C2577
:1034A40030325820200D0A0052585F50697065343C
:1034B4002041646472733A0D0A090978782C78788B
:1034C4002C78782C78782C2530325820200D0A005E
:1034D40052585F50697065352041646472733A0DC7
:1034E4000A090978782C78782C78782C78782C2527
:1034F40030325820200D0A005458204164647273FD
:103504003A0D0A0909253032582C253032582C2519
:103514003032582C253032582C2530325820200D8A
:103524000A00000052585F50575F50303A0D0A09A4
:10353400092564206279746573200D0A0000000077
:1035440052585F50575F50313A0D0A0909256420DB
:103554006279746573200D0A0000000052585F50B0
:10356400575F50323A0D0A0909256420627974655F
:1035740073200D0A0000000052585F50575F50330B
:103584003A0D0A09092564206279746573200D0ACD
:103594000000000052585F50575F50343A0D0A093A
:1035A400092564206279746573200D0A0000000007
:1035B40052585F50575F50353A0D0A090925642067
:1035C4006279746573200D0A0000000044594E505E
:1035D400445F706970653A0D0A090950303A09254B
:1035E400640D0A090950313A0925640D0A09095084
:1035F400323A0925640D0A090950333A0925640D44
:103604000A090950343A0925640D0A090950353A62
:103614000925640D0A000000454E5F44504C3A0DE4
:103624000A0909456E61626C6564200D0A00000098
:10363400454E5F44504C3A0D0A090944697361626E
:103644006C6564200D0A0000454E5F41434B5F509A
:1036540041593A0D0A0909456E61626C6564200D91
:103664000A000000454E5F41434B5F5041593A0DFB
:103674000A090944697361626C6564200D0A0000DB
:103684000D0A2D2D2D2D2D2D2D2D2D2D2D2D2D2DA9
:103694002D2D2D2D2D2D2D2D2D2D2D0D0A00000020
:1036A400535441545553207265673A0D0A0909521F
:1036B400585F44523A090925640D0A090954585FB0
:1036C40044533A090925640D0A09094D41585F52CA
:1036D400543A090925640D0A090952585F505F4E8E
:1036E4004F3A0925640D0A090954585F46554C4C54
:1036F4003A0925640D0A0000434F4E46494720729B
:1037040065673A0D0A09095057525F55503A09093D
:1037140025640D0A09095052494D5F52583A09254A
:10372400640D0A004649464F205374617475732032
:103734007265673A0D0A090954585F46554C4C3A6C
:10374400090925640D0A090954585F454D50545917
:103754003A090925640D0A090952585F46554C4C2B
:103764003A090925640D0A090952585F454D505418
:10377400593A090925640D0A00000000232D302B55
:103784002000686C4C00656667454647003031325E
:1037940033343536373839414243444546003031B5
:1037A4003233343536373839616263646566000014
:0837B4008CCAFF7F0100000038
:0437BC00F50100080B
:0437C000D10100082B
:1037C40001000000100000000024F400100000209C
:1037D40000000000000000000000000000000000E5
:1037E40000000000000000000000000000000000D5
:1037F40000000000000000000000000000000000C5
:1038040000000000000000000000000000000000B4
:1038140000000000000000000000000000000000A4
:103824000000000000000000000000000000000094
:040000050800294581
:00000001FF
